:020000040800F2
:1000000078AE00207DFD000809FD00080BFD00080A
:100010000DFD00080FFD000811FD000800000000A4
:1000200000000000000000000000000011B7000800
:1000300013FD000800000000B5B6000833AC00084E
:10004000CDFD0008D1FD0008D5FD0008D9FD000850
:10005000DDFD0008E1FD0008E5FD0008E9FD000800
:10006000EDFD0008F1FD0008F5FD0008F9FD0008B0
:10007000FDFD000801FE000805FE000809FE00085D
:100080000DFE000811FE000815FE000819FE00080C
:100090001DFE000821FE000825FE000829FE0008BC
:1000A0002DFE000831FE000835FE000839FE00086C
:1000B0003DFE000841FE000845FE000849FE00081C
:1000C0004DFE000851FE000855FE000859FE0008CC
:1000D0005DFE000861FE000865FE000869FE00087C
:1000E0006DFE000871FE000875FE000879FE00082C
:1000F0007DFE000881FE000885FE000889FE0008DC
:100100008DFE000891FE000895FE000899FE00088B
:100110009DFE0008A1FE000815FD0008A5FE0008D0
:10012000A9FE0008ADFE0008B1FE0008B5FE0008FB
:10013000B9FE00081BFD0008BDFE0008C1FE000856
:10014000C5FE0008C9FE0008CDFE0008D1FE00086B
:10015000D5FE0008D9FE0008DDFE0008E1FE00081B
:10016000E5FE0008E9FE0008EDFE0008F1FE0008CB
:10017000F5FE0008F9FE0008FDFE00080000000082
:1001800001FF000805FF000809FF00080DFF000837
:1001900011FF000815FF000819FF00081DFF0008E7
:1001A00021FF000825FF000829FF00082DFF000897
:1001B00031FF000835FF000839FF00083DFF000847
:1001C00041FF000845FF000849FF00084DFF0008F7
:1001D00051FF000855FF000859FF00085DFF0008A7
:1001E00061FF000865FF000869FF00086DFF000857
:1001F00071FF000875FF00082DE9FC470646DFF88F
:10020000047A706838627289142A48DBDFF8F8894A
:10021000D8F80010D8F8140001F0D0F9002840F008
:10022000E48198F8140000F0F000E02800F0DD818F
:10023000396A00F0F6FC000B81001429A4BF308954
:1002400088422CDBA1F114000022B882DFF8BC99AF
:100250007A6273898B4206DBF882494209B23046E2
:1002600001F018FC3CE0306830B909F12803B222F3
:100270000FF2DC3101F0D3F86FF01301304601F0DA
:1002800009FC71893046BC8AF982641A09B2494274
:1002900009B201F0FFFB3068A4B24189A142C0F26B
:1002A000A48121B2426849427A6209B201F0F2FBAC
:1002B000318970890C1B348130B109F12803CF22B8
:1002C0000FF29C3101F0ABF8316830890A89904215
:1002D00006D009F12803D0220FF2903101F09FF8E7
:1002E000386ADFF82CA9008801F048FE396A0880D6
:1002F000488801F043FE396A488001F088F8396A7D
:1003000048603A6AB862906801F03EFE396A8860D7
:10031000F862386AC08901F031FE396AC88100F09C
:1003200080FC00F03F00387010F00300318918BFE6
:10033000012000244018B883DAF8005001E02C4670
:10034000ED68002D00F05881287D30B909F12803AF
:10035000E22209F1880101F062F8287D0A2806D11D
:1003600009F12803E32209F1B00101F058F8287DD2
:10037000012806D109F12803E42209F1DC0101F08A
:100380004EF8386A298B0288914202BFEB8A408876
:100390008342D4D16968D8F81020914202BF2868FE
:1003A000D8F814108842CAD1EA68AA4206D109F1E5
:1003B0002803EC2209F5827101F031F834B1E868C4
:1003C000E060DAF80010E960CAF80050E868A84276
:1003D00006D109F12803F42209F5987101F01FF8FC
:1003E000002078603189386ABE60B98100213963A4
:1003F00079707983397838610A0703D5707B40F0CA
:1004000001007073686F6FF00C0400286BD02846F1
:1004100002F09BFAA04205D0696F00291CBFB88B7F
:10042000002860D0698D002902D1284603F04BF9DD
:10043000D1E0E468002C00F0E380207D0A2806D09B
:1004400009F12803FE2209F5AE7100F0E8FF386AD1
:10045000218B0288914202BF4388E08A9842E8D10A
:100460006168D8F81050A94202BF2068D8F814106B
:100470008842DED13978480724D48D07B88B12D54D
:10048000BD6A616AB5EB010C13D4218DACEB01019F
:1004900000290EDC2918F86A019208F11402009371
:1004A00008F11003C7E0C90703D5DFF86827136810
:1004B0002362002806D0A07E40F00200A0762046ED
:1004C00003F036F991E0C88AA04209D10868D8F84B
:1004D00014C0604518BF002918BF002800F0AE8086
:1004E0000A46C96892E07D63284600F073F9A0428D
:1004F00071D0787801070FD5D5F88C201AB128690A
:100500006FF00D0190472946504602F0B1FB294695
:10051000012003F095FC5EE07A8B42B1EB6F23B1D2
:10052000286929469847A04255D00020788328465C
:1005300000F0BAF800284ED1396B39B3686F30B18A
:1005400009F128034FF4D27250A100F068FFA87E91
:100550003A6BC10606D5104601F0A0FA284601F014
:10056000D6FE38E0D5F880C0BCF1000F04D0286971
:1005700000232946E04704E000232946002002F03A
:1005800042FAA04227D008B1386B686779788806AC
:1005900018D5686F20B1417B41F02001417311E013
:1005A000288DB0F5066F1CBF401C2885D5F880C08B
:1005B000BCF1000F06D02869002300222946E0473D
:1005C000A04208D000207863284600F06DF810B9EA
:1005D000284603F0ADF8002078633863B86848B166
:1005E00001F05CFA0020B86004E03046BDE8F64750
:1005F00001F054BABDE8F387DFF81C160C6819E760
:100600003B6ADFF81856002229685C8800297FF4CD
:100610005AAF988901F0B2FC4007E6D4386A08F175
:10062000100308F11402018801914088B96A009012
:10063000B88B0918F86A03F0DDF9D6E722B1C8686B
:10064000D0602A68CA602960084600F04BF8CCE701
:10065000702D3E6E65787420213D204E554C4C0027
:10066000702D3E6C656E203D3D203000702D3E7437
:100670006F745F6C656E203D3D20702D3E6E657819
:10068000742D3E746F745F6C656E00007063622D34
:100690003E726566757365645F64617461203D3D9B
:1006A000204E554C4C00000010B50446DFF85405B0
:1006B0004178CA0614D5A07EC10606D4D4F88C2091
:1006C0001AB120696FF00E0190472146DFF840050E
:1006D00002F0CEFA2146012003F0B2FB012010BD4A
:1006E000002010BDFEB50646DFF8185528784107F2
:1006F0006FD4C206DFF810750FD5286AAC6A07F10F
:10070000100307F11402018801914088A98B009021
:10071000E86A611803F06EF9F7BD810759D5707D5D
:1007200002F0B4F904000AD1B369002B51D030694A
:1007300003B04FF0FF320021BDE8F0401847786960
:10074000206039696160F28A04F15C07E282286AFC
:100750000322018822752183A86A401C6062E0623E
:10076000204602F0CBFA6065E0646064A065A86A88
:10077000401E206531692161FE61307A00F00C0075
:100780002072DFF88C040168E160046003F0B2FBC2
:100790000120DFF82C2C1070204600F05AFE296A48
:1007A000C889211D38807880608E02F0ADFA60869D
:1007B0001221204602F0F4FE30B1204603B00021A1
:1007C000BDE8F04001F045BD2046BDE8FE4002F026
:1007D000AFBFF7BD2DE9FE4FDFF828740446387827
:1007E00004F14406DFF82484410728D5207D02283F
:1007F00005D1F86AB168884240F0B9810CE0616ABD
:10080000BA6A8A4213D138B908F1280340F2E722C4
:100810000FF2603100F0C0F97B7843F008037B7081
:10082000A07E00F0FE00A0766FF00D00A0E1511A4E
:1008300000F19D81208D091A0029DDDC8EE0810701
:1008400004D5207D022818BF0328F7D1A07EC10659
:1008500003D4DFF8C02313682362002041F21C197F
:1008600084F89600204600F0F4FDB88BBA6A97F839
:1008700000A03B6ADFF890E3DFF894531018029071
:1008800094F814B0F86A0AF01001ABF1020BBBF156
:10089000070F67D8DFE81BF008007E00DA00E600EB
:1008A0001901DA002F015B010AF01205122D02BFB7
:1008B00035686D1CA84256D1511C521E6162E1621E
:1008C000211D3060D889308370830420F260207548
:1008D000608E02F019FA42004A4560868CBF1346CA
:1008E0004B468100994238BF800003D34A458CBFF4
:1008F00040004846B080F08B38B908F1280340F238
:100900001A320FF6CC3100F047F9F08BB56A411E70
:10091000F18365B9756A3DB908F1280340F22232C6
:100920000FF6C43100F038F92868706201E02968D8
:10093000B162284602F047F8B06A00280EBF4FF0B7
:10094000FF30002084F842002086336C33B12069E8
:1009500000222146984710F10D0F43D0A07E40F0B1
:100960000200A07603E10029FCD0198801915A8881
:1009700002990EF1100300920EF1140203F03AF8FE
:1009800094F84200062804DA00212046218603F06C
:1009900087F8ECE000294ED03168411A491E3ED458
:1009A000B268821A002A3ADC04202075706BB0B15C
:1009B000806948B908F1280340F251320FF63C3102
:1009C00000F0EAF8706B50B1716B8B693BB1206934
:1009D00000222146984740B110F10D0F02D0204669
:1009E00001F095FC6FF00C00C2E000F0D3F8788BBA
:1009F00008B1401E7883608E42004A458CBF134682
:100A00004B468100994238BF800003D34A458CBFD2
:100A100040004846B080787881061CD4A7E01A8848
:100A2000029901925B880EF1140200930EF11003FB
:100A300002F0E0FF9BE05FEA8A70FBD5616A491E25
:100A40008A4202D1204603F044F890E000F0A2F878
:100A500078788106F9D5A27E0720207542F002023F
:100A6000A27684E000F096F87A783878F96A9306EE
:100A700000F010001ED5B8B1B268914204BF706A90
:100A8000002811D1A17E204641F00201A17602F09A
:100A9000CCF82868A04240D000E00846002847D0A3
:100AA000C168A142F9D141E0A07E082140F00200D6
:100AB000A07608E000285AD0B268914204BF706A5C
:100AC000002854D10621217551E000F063F87878B0
:100AD00081064CD5A27E204642F00202A27602F0A8
:100AE000A4F82868A04218D000E0084600B3C16806
:100AF000A142FAD11AE000F04DF83878C10636D597
:100B0000FA6AB3689A4204BF706A00282FD120465F
:100B100002F08BF82868A04204D12868C1682960D7
:100B200006E0084620B1C168A142FAD1E168C1607F
:100B300000200122E060DFF888180A700A2323757C
:100B400035480568E560046003F0D4F90FE000F073
:100B500021F83878C1060AD5FA6AB3689A4204BF08
:100B6000706A002803D1797841F010017970002073
:100B7000BDE8FE8F7463705F696E7075743A2070A3
:100B800063622D3E737461746520213D20434C4F98
:100B900053454400204647E0404603F08BBA70B509
:100BA00005460C46E96800F03CF8C10713D520461D
:100BB000002401F0FFFE22E000F035FCC00706D55E
:100BC000012001F0DBF9E9688A8910438881204619
:100BD000246801F0F8FE94B1E0680A492A89896A1C
:100BE000268943688A18D31A9B1BE5D54368D21A15
:100BF000002A04DD591A6868298100F0ECFB2C609A
:100C000070BD000048A90020D8A9002094E9000880
:100C10004C00002040000020500000204800002030
:100C20002969888901F0AAB92DE9F84F0646DFF84D
:100C30009498347D042C07DA09F128034FF481627B
:100C40000FF6D80100F0EBFBDFF87C5806F1440703
:100C50002A78D00640F143813C8B3969D7F80C8063
:100C6000A86AD5F820C0EB6A0A19B8EB000E09D4BF
:100C700002D1B1EB030805D499421DD1BCF80E1086
:100C80008C4219D2BCF80E1006F144043983648BEF
:100C9000F8603B618846A04538BFA046A7F81A8097
:100CA00006F19404607821B930B901212070617097
:100CB00002E008B100206070D7F800C009F5C674E2
:100CC00006F142010FF67008A3EB0C00002828DCA7
:100CD000A88B002801BFD7F810E0388B70449042F1
:100CE0001CD1B6F93020002A18D49C4516D148787A
:100CF000421CD3B2984238BF4A704878042807DBB8
:100D0000B888718E09188AB2904200D2B980A4E0E6
:100D10000328FCD1304602F005FF9EE00020487019
:100D20009BE0401E72D4B868181A00286EDCB07EB2
:100D3000420704D500F0FB00B076F888B8800022A6
:100D40000A70B6F93E00B6F93CC000EBEC00A6F81C
:100D500040004A703B60317D042935DBB888F98852
:100D60008842718E04D209188AB290422CD20AE0CD
:100D7000494391FBF0F1091806F14400828889B2D9
:100D8000914238BF1146B9801EE0DAF80010B9620E
:100D900000F024FBF98B814205D209F1280340F2CF
:100DA0009E4200F03BFB00F019FB00F01BFBF88BB0
:100DB00050B1B96A41B9786A00BB09F1280340F221
:100DC000A742414600F02BFBB86AB8B100F01EFB09
:100DD0008346B86AC168FFF724FFD7F828A010F04F
:100DE0000300EA6ABAF8081018BF012059444018F5
:100DF000801A0028C9DDBAF1000F02D14FF0FF3090
:100E000000E0002030860020F07626E0304602F038
:100E10005AFC22E0DAF80000786200B9388400F069
:100E2000DDFAF98B814205D209F1280340F2D5425F
:100E300000F0F4FA00F0D2FA00F0D4FAF88B60B1C6
:100E4000B96A002904BF786A002806D109F128038D
:100E500040F2DD42414600F0E2FA786AC0B100F0AB
:100E6000D5FA8346786AC168FFF7DBFED7F824A07D
:100E700010F00301E86ABAF8082018BF0121A0EBBE
:100E80000B039A1A511A03D4B968401A0028C1DD1D
:100E9000BA8B688B8218BA83706B00B3B26BE96A45
:100EA000521A1CD5DFF82426B6F93C101368181A1C
:100EB00000B2A0EBE1004118B187B6F93E2004B2C0
:100EC000002C48BF40420904C9148018A0EBA200BE
:100ED000F08701FA80F00021A6F840007163A88B2A
:100EE000AA6A002800F05382317D072980F24F82E0
:100EF000716AA1EB0208B8F101035DD4A8EB000010
:100F0000401C59DCAC683CB909F1280340F23C5262
:100F10000FF2446100F083FA47F6FF70804507DB6B
:100F200009F1280340F23D520FF23C6100F077FADC
:100F3000A8680FF2546A4189414525DA0089404585
:100F400007DA09F1280340F23F520FF22C6100F05A
:100F500066FAA8680089A0EB080005E0A8EB010884
:100F6000002120816181246861894145F6DBC8F157
:100F700000080FFA88F1204600F08CFD90B109F1CD
:100F8000280340F24C520AE0C8F100080FFA88F139
:100F900000F080FD30B109F1280340F25152514672
:100FA00000F03DFAAA89716AA86A521A8218AA81C9
:100FB000A9622A69516005E0521A03D5B07E40F05B
:100FC0000200B076716AAA6A531A00F1DB81308D93
:100FD0001B1A5B1C00F3D681914209F5DA7A40F0C6
:100FE000128100F01FFA00F015FA18BF0120401816
:100FF000A883328D80B282422DD200F013FAC0074E
:101000000CD5FFF70DFE00F03E0000F0B7FF2A6997
:101010004CF2FF0193890B4018439081308DA881D9
:10102000FFF7FEFD00F0E9F900F0FCF900F0F2F93D
:1010300018BF01204018A883318DAA6A736A12FA7A
:1010400080F05918884206D009F1280340F27F52F7
:10105000514600F0E4F9F86A002856D0FFF7E0FDA9
:10106000C00707D5F86A00284FD00168F96201F07F
:10107000AAFCF7E7FC6A1AE000F0D5F9C00712D520
:10108000FFF7CEFD80070ED4012000F077FF29691D
:101090008A891043888100F071FF00F0BBF918BF06
:1010A00001204018A8832046246801F08CFC5CB322
:1010B000E068AA8BA96AB4F8088043688A18D31A32
:1010C000B3EB0803D8D54368D21A002A1CDD591A9D
:1010D000A98100F0A7F900F090F900F0A3F900F061
:1010E00099F918BF01204018A883E268AB6A5168DB
:1010F00013FA80F0884207D009F1280340F2AF527A
:1011000009F5F67100F08BF9FC62A88BA96A091841
:101110007162328D824207D209F1280340F2B9523E
:101120000FF2784100F07BF9318DA88B091A304617
:10113000318501F093F9A968088910B1296300216C
:10114000A96000F06FF9C00703D5697841F020016C
:101150006970FC6A002C00F02781E168726A4868B7
:10116000904240F02181A862E06800F05CF910F044
:1011700003002289716A18BF01208018411871622A
:10118000E368988900F0FAFE10F003002289318D9F
:1011900018BF01208018814207D209F1280340F2CC
:1011A000DE5209F50A7100F03AF9E06800F03BF907
:1011B00010F00300318D228918BF0120891A081A06
:1011C0003085304601F04AF96168088938B1286BEA
:1011D00000280CBF296300F0E5FC00206060E16896
:1011E000FFF71FFDC00708D5697841F0200169703D
:1011F000307D042804BF072131752068F86220463D
:1012000001F0E1FBA5E7304602F05DFAD7F82C804B
:10121000B8F1000F03D100F0DBF8F862C2E000245F
:10122000D8F80C20A96A5068814209D0BCB9081AC4
:101230001ED500F0CDF80028F0D0F862414635E028
:10124000B8F80800A9898842E8D200F0C1F800285F
:10125000E4D0002C414614BF2060F86226E0E36829
:101260005868081A401E03D45068081A401C0BDD49
:10127000D8F8000018B95368C91A002919DC444687
:101280005FEA0008CCD18DE000F0A2F80600FAD0A9
:10129000E068238900F096F805DD42686068891AE5
:1012A000218100F098F8266041463046BDE8F44FB1
:1012B00075E4908900F062FEC00773D400F088F8EE
:1012C0000028C8F800006DD0D8F80C00B8F8083035
:1012D00000F078F807DD4268D8F80400891AA8F809
:1012E000081000F078F8A88BAA6A716A1218308D7D
:1012F000521A121A002A55DDD8F80020D168FFF7DB
:1013000090FCC00712D5D8F80010CA68908900F088
:1013100035FE00F03E0000F031FED8F800204CF21F
:10132000FF01D26893890B4018439081308D726A17
:10133000A96A8218D8F80000511A0181406800F0AB
:101340004AF8D8F80000C168FFF76BFCD8F8001025
:1013500010F003000A8918BF01208018A883328D7D
:10136000AB6A716A13FA80F08A1890421AD009F1B8
:1013700028035146484601B040F27B62BDE8F04F79
:1013800002F098BE3046BDE8F24F02F09CB9716A97
:10139000521A03D4308D121A521C03DDB17E41F073
:1013A0000201B176BDE8F18FB07EC10752BF40F0B7
:1013B000010000F0FE0040F00200B076F2E700000D
:1013C0003C000020A96A4268D218521A002A7047CD
:1013D000281D01F006BB89B200F0A0BADAF80400BB
:1013E00000F0BEBBF98B081AF883688BBAF80820A6
:1013F00010186883504601F0E6BA800702D5A98923
:101400004A1EAA81A989A86800F088BAC1684868FC
:1014100000F0BABD10F00300A98970472146484684
:1014200002F048BE2869808900F0A8BD10B52649A1
:101430000A8B486A531C10B1CC8AA24204D2086AB3
:101440000B831044007D10BD121B0B83D2B2805C55
:1014500010BDF8B51C4D0646AC8A64B30020288345
:1014600017E0FFF7E3FF042825D1298B891C8C4264
:1014700021DBFFF7DBFF0746FFF7D8FF40EA072035
:1014800040F21922904201DA010001D14FF40670B6
:101490007086288BA0420ED2FFF7C8FF58B10228F1
:1014A000DFD0F6D3FFF7C2FF0228A1BF298B801E31
:1014B00041182983EDDAF1BD0348417841F010016C
:1014C0004170704794E9000848A9002040000020BE
:1014D0007063622D3E736E645F71756575656C65D2
:1014E0006E203E20300000006E6F207365676D65D2
:1014F0006E7420746F206672656500007063622DE3
:101500003E6C697374656E65722D3E6163636570D0
:101510007420213D204E554C4C0000007463705FD8
:10152000726563656976653A2077726F6E672073BE
:1015300074617465000000007463705F72656365B8
:101540006976653A2076616C6964207175657565A8
:10155000206C656E67746800696E7365672E702015
:10156000213D204E554C4C00696E73616E65206FB5
:1015700066667365742100007062756620746F6F13
:101580002073686F72742100706275665F686561B0
:10159000646572206661696C656400007463705FE5
:1015A000726563656976653A207463706C656E2058
:1015B0003E207263765F776E640A0000C24318BFF4
:1015C000002810D091F82F2093070ED54A6890423A
:1015D0000BD0896801EA00030A40934202BFC94365
:1015E0000840884201D10120704700207047F0B4C4
:1015F0000246106895681318506803EB5004C00742
:101600001DD54D441BE013F8017B05F8017B491EF5
:10161000F9D1A0B1B60813F8011B06F00306032E9A
:1016200008BF13F8016B01EB06214942801C2944D5
:1016300005D011F8016B05F8016B401EF9D1A342EA
:101640000ED013F8016B16F0030104BF13F8011B51
:10165000C91C30090F28DAD113F8010B0F30D6E777
:10166000F0BC02F10C00704710B502F015FE00212D
:10167000DFF83C27117002F018FEDFF83807046825
:1016800000E0E46834B1206F0028FAD001F092F94C
:101690000020206710BD38B502F0FEFDDFF81047CE
:1016A00001212578217002F000FE75B90022002189
:1016B000DFF8040702F078FE38B102F0EDFD0021FA
:1016C0002170BDE8324002F0F0BD31BD04282DE9A3
:1016D000F84F1446DFF8E4B61BD8DFE800F0031437
:1016E000161818003625032C0F4600F2DA80DFE8C2
:1016F00004F099CACA020C2002F074FB06000FD154
:10170000FFF7C9FFC4E02225EDE70E25EBE7002532
:10171000E9E70BF128034FF48B720FF2A461C6E0E6
:10172000032000213073EC1C31607119A40801F111
:101730001000A400C01CC4F5147480088000A742E7
:101740007060378138BF3D4605D3ED1C4FF6FC7005
:101750000540C5F5147575817189706806F51878AE
:101760000BF1B8090144884505D20BF128034FF469
:10177000987200F09FF83CB90BF128034FF499726E
:101780000BF1EC0100F097F870890121F1813546E9
:101790000FF2486A3F1A38E0032100204FF6FF732A
:1017A000217360739F4220602C6006DB0BF12803DD
:1017B0004FF4A672514600F07EF8B8B2B0F5147F2F
:1017C000278104F1100161602CBF4FF4147038467A
:1017D0006081207910F0030F07D00BF128034FF43C
:1017E000A9720BF5907100F066F871897068014478
:1017F000884505D20BF1280340F2551200F05AF843
:1018000061890120E08125467F1A012F34DB0C20FD
:1018100002F0E8FA0400BFD1FFF73DFF304600F0C8
:101820003DF935E005F113004FF6FC72FB1C10404A
:1018300013401818FA1C81B29208B1EB820F27D31B
:1018400080B202F09DFF060022D070191030C01C3B
:1018500080088000002170603781778131603079A5
:10186000317310F0030F07D00BF1280340F2771209
:101870000BF5A87100F01FF801200021F08130461F
:101880007173BDE8F28F0B2002F0ACFA060001D1B3
:101890000020F6E700207060378177813060347374
:1018A000EAE70BF128034FF4C6720FF2445100F03F
:1018B00002F8EDE74946584602F0FCBB38B504464D
:1018C000042C184610D8DFE804F003090B0D0D00B6
:1018D0003824059B6518AB4212D20FE02424F8E7A8
:1018E0001024F6E70024F4E7DFF8D00440F2C51234
:1018F00000F1280300F5BE7102F0DCFB002032BDD0
:10190000049B0025056003B1234443600223027356
:101910000122437301814181C28132BD2DE9F84327
:1019200004000E46DFF8945407D105F1280340F275
:10193000F3120FF2D84100F05AF8207B032818BFA9
:1019400001280BD0002818BF022807D005F1280372
:1019500040F2F7120FF2CC4100F049F82789BE425D
:1019600043D2F71B0FF2EC480FF2D44918E04FF6C0
:10197000FF72361A9742B6B206DB05F1280340F231
:101980000B22494600F033F820893818208124685A
:1019900034B905F1280340F20F22414600F027F840
:1019A0006089B042E3DB207BB0B961898E4213D0FD
:1019B000607B820710D461682046091B711889B2C8
:1019C00002F062FE040007D105F1280340F21D2257
:1019D0000FF2984100F00BF8668160892081206841
:1019E00008B100F05BF800202060BDE8F1832846D4
:1019F00002F060BBF8B5DFF8C44348B904F128032E
:101A000040F23F220FF28041204602F053FB34E0C7
:101A10000B0032D04E4200290BD543893746BDB268
:101A2000AB4207D204F1280340F247220FF264418F
:101A30002BE08FB2037B4568002B18BF032B07D127
:101A400000F11003AA199A42426010D245601FE0CB
:101A5000022B18BF012B12D1002904D54289BFB235
:101A6000BA4202D214E013DD92B1AA19426042894F
:101A700003898A184281C91801810020F2BD04F14E
:101A8000280340F277220FF22C41204602F012FB8D
:101A90000120F2BD0022ADE70122ABE72DE9F843BA
:101AA0000400DFF8189309D109F1280340F2D2228B
:101AB0000FF2D43100F037F900204FE0207B0028EE
:101AC00018BF01280BD0022818BF032807D009F13E
:101AD000280340F2DE220FF2EC3100F024F9002757
:101AE0000FF2F83802F0D8FB0546E08930B909F169
:101AF000280340F2EB22414600F015F9E089461E2A
:101B00002846E681B6B202F0D0FB36BB617B256881
:101B1000207B8A070DD5206938B909F1280340F2E6
:101B2000F92209F5D07100F0FEF8216920468847B6
:101B300010E0032802D121460C2005E0012818BF3F
:101B4000022804D121460B2002F07AF902E0204657
:101B500002F04CFD7F1C2C00C4D1F8B2BDE8F2832A
:101B60000146002001E0401C09680029FBD180B239
:101B7000704710B5040014D002F08EFBE189491CB7
:101B8000E18102F092FBE08958B9DFF8300240F2BF
:101B9000393200F128030FF25C31BDE8104002F049
:101BA00089BA10BD70B504000D46DFF8106218BF89
:101BB000002D0FD106F1280306F5E271304640F200
:101BC0004D32BDE8704002F075BA23892989CB18DF
:101BD0002381044620680028F7D120896189884242
:101BE00008D006F1280340F2553206F5FE71304662
:101BF00002F060FA206840B106F1280340F2563244
:101C00000FF20431304602F055FA21892889411833
:101C10002181256070BD10B50C46FFF7C3FF20463B
:101C2000BDE81040A5E72DE9F0470546002600274E
:101C30000C46002D6FF00F08DFF8809118BF002CC4
:101C400003D028892189884262D209F1280340F211
:101C5000BD3209F5147147E0636868681FFA8AF2BB
:101C6000D91957448019564402F08CFE6989B6B2DE
:101C7000BFB2B14207DA09F1280340F2CD320FF2C8
:101C8000982100F050F86089B84207DA09F128037A
:101C900040F2CE320FF2982100F045F86089874279
:101CA0006889A4BF00272468864202BF00262D68E9
:101CB000002D11D02CB161892289914201D1206877
:101CC000B0B92DB169892A89914201D12868D0B96A
:101CD000F4B90020BDE8F087002CFAD009F1280300
:101CE0004FF476720FF2642100F01DF84046F1E7E0
:101CF00009F1280340F2DE3209F5207100F013F8F3
:101D00006FF00500E6E709F1280340F2E332F3E75C
:101D100063896889811BDA1B9142ACBFA3EB070A78
:101D2000A0EB060A98E7484602F0C4B92DE9F8434B
:101D30000446894617460026204834B900F1280396
:101D400040F2FE320FF2142108E0B9F1000F09D180
:101D500000F1280340F2FF3200F52B7102F0AAF9DE
:101D600000200BE0B0461FE0658998B240B1A84260
:101D700006D35B1B2468002CF6D1B0B2BDE8F28319
:101D8000ED1AADB2B8B2A84260689BB2B8BFBDB29E
:101D90002A46AE19C1181FFA88F04844A84402F038
:101DA000F1FD7F1B00232468B8B20028E5D0E2E7EC
:101DB00070AA00204C000020691600083CE40008CE
:101DC000706275665F616C6C6F633A20626164205B
:101DD00070627566206C61796572000072656D5F76
:101DE0006C656E203C206D61785F7531365F7400E4
:101DF000706275665F616C6C6F633A206572726FBA
:101E00006E656F7573207479706500007062756619
:101E10005F7265616C6C6F633A207020213D204ECB
:101E2000554C4C00706275665F7265616C6C6F63D7
:101E30003A2073616E6520702D3E747970650000E4
:101E400067726F77203C206D61785F7531365F7403
:101E500000000000706275665F7265616C6C6F6394
:101E60003A207120213D204E554C4C006D656D5F30
:101E70007472696D2072657475726E65642071206C
:101E80003D3D204E554C4C007020213D204E554C80
:101E90004C000000696E6372656D656E745F6D6104
:101EA000676E6974756465203C3D20702D3E6C65DD
:101EB0006E00000062616420706275662074797043
:101EC00065000000706275665F667265653A207332
:101ED000616E65207479706500000000706275663F
:101EE0005F667265653A20702D3E726566203E2001
:101EF000300000007062756620726566206F76653E
:101F000072666C6F77000000702D3E6E65787420ED
:101F10003D3D204E554C4C006F66667365745F7492
:101F20006F203C3D20705F746F2D3E6C656E00002D
:101F30006F66667365745F66726F6D203C3D2070DE
:101F40005F66726F6D2D3E6C656E0000705F746F22
:101F500020213D204E554C4C0000000070627566FB
:101F60005F636F70795F7061727469616C3A206948
:101F70006E76616C69642062756600000146000A35
:101F800040EA012080B270470146080200F47F0059
:101F90000A0A40EA016002F47F42104340EA1160FD
:101FA000704730B4002513E050F8042BD30744BF2A
:101FB000A9F101039A18091F042942F8045BFAD217
:101FC00013468C0744BF15809B1CC90748BF1D7072
:101FD00050F8041B0029E7D130BC7047704780B52A
:101FE00000F07EFCDFF8980A0178491C0170C807F0
:101FF00002D5BDE80140D5E201BD0000FEB50029D3
:102000000446227DDFF87C5ADFF87C6A4CD0042A33
:1020100018BF072A48D1606F002804BF218DB1F591
:10202000066F41D0A07EC70600F1078006F12803A5
:1020300040F20F1261A100F074FA238B2246019343
:10204000E08A231D0090616AE06C01F0D3FC204619
:1020500000F0EBFD2869A04203D1C068286106E0CA
:10206000084620B1C168A142FAD1E168C1600020F0
:102070000122E0602A70217D042908D10A20207500
:102080006969E1606C6101F035FF0020FEBDDFF899
:10209000E00A0168A14202D1FFF70EFAF5E72146F6
:1020A000012001F0CDFEF0E71AB1022A3FD013D390
:1020B00046E0E08A0028F2D0A868A04203D1C068B8
:1020C000A86006E0084620B1C168A142FAD1E168E3
:1020D000C1600020E060E2E77CB906F12803C0227D
:1020E00043A100F01EFA0020017D012905D006F170
:1020F0002803C12238A100F014FA01210FF278421E
:10210000002652F82100006804E0836FA34208BF54
:102110008667C0680028F8D1491C0429F1D32146FC
:1021200005F10C0000F0A4FD21460220B9E721468C
:1021300005F1100000F09CFD012021462870B0E759
:102140002046BDE8FE4000BF38B5050040F00980DC
:10215000DFF8340940F24D1200F1280324A101F008
:10216000A9FF2B7D032B04D0042B0AD0072B13D0FF
:1021700019E0284600F0B4FE040007D105202875B8
:1021800005E0284600F0ACFE0400F7D06CB9284604
:1021900001F0CEFA204632BD284600F0A1FE040030
:1021A000F4D10920EBE7002032BD14F1010FF1D189
:1021B000A87E40F00800A876F5E700007063622D65
:1021C0003E666C61677320262054465F5258434C2C
:1021D0004F534544000000007063622D3E737461EC
:1021E0007465203D3D204C495354454E000000008D
:1021F00070636220213D204E554C4C00017D012929
:1022000003D0827E42F0100282760121F6E610B5FC
:102210000446207D012819D089B1A37E43F0100324
:10222000A37622B101212046BDE81040E6E6606FAA
:1022300018B1FFF733FC00206067002010BD002AB2
:10224000FBD0C01E0128EED9001FECD06FF00A00B1
:1022500010BD2DE9FE4F04468B46207D012809D193
:10226000DFF824084FF4F07200F1280300F1840134
:1022700001F020FF217DDFF80C780A290BD12146DF
:1022800007F1140000F0F4FC214603B00120BDE882
:10229000F04F01F0D5BDE06C00250290A946666ABA
:1022A000D4F88CA0D4F81080E08A21B960B100F095
:1022B0006BF9E56008E08146214607F110005D46B4
:1022C00000F0D6FC01203870E06E08B100F072FB1F
:1022D000A06E08B100F06EFB206F08B100F06AFB41
:1022E0004DB1208BCDF80090231D2246019002981D
:1022F000314601F07FFB214600F0ADF85FEA0A00AD
:1023000003D06FF00C014046D047BDE8F78F0121A4
:102310009FE70000F8B50C00054613466FF0050670
:1023200008BFDFF8684A002D18BF002C0BD0287DAD
:1023300058B1DFF854074FF4117200F1280300F18F
:10234000B80101F0B7FE3046F2BD180006D100F02A
:10235000EDF8030018D16FF00100F2BD5FF0000648
:1023600085A757F8260002685AB1D08A984206D14C
:10237000BAB11168A9B1206898B1814211D0D26870
:10238000F2E7761C042EECDB206800B12860EB82BB
:10239000DFF8FC098168E960856001F0ABFD002091
:1023A000F2BD6FF00700F2BD80B50846FFF7AFFF42
:1023B0006FF00C0002BDF8B506461446307D0025CE
:1023C00060B1DFF8C4064FF42D7200F1280300F16C
:1023D000E00101F06FFE6FF00E0036E0022001F028
:1023E00001FD050008BF4FF0FF302ED030690122FB
:1023F0002861F18A2A75DFF88C76E982707D68752C
:10240000317A2972B07AA872717A697232682A6058
:10241000F08A70B1B868B04203D1C068B86006E015
:10242000084620B1C168B142FAD1F168C16000200C
:10243000F060314600F00FF8DFF85809A861F9683C
:10244000E960FD6001F056FD002004B120702846CF
:10245000F2BD2946ED68012001F0F2BC70B50446DA
:1024600040F23146218D656A628EE36A6818B24295
:10247000A8BF4FF48662C01A821A01D4618570BD6C
:10248000E81A0028C8BF00250DDC5D1BB5F5803FAC
:1024900009D3DFF804094FF4427200F128030FF664
:1024A000101101F007FE6585002070BDF8B50446E7
:1024B0000D46277DDFF8E068012F07D106F12803DC
:1024C0004FF4487206F5827100F02BF8238D40F628
:1024D0006100ED18AAB28242258506DAADB285B94F
:1024E000207D072818BF092803D14FF406602085F6
:1024F00007E006F1280340F22D3206F5967100F050
:1025000010F82046FFF7AAFFB0F5067F08DBA07E93
:1025100040F00200A0762046BDE8F24001F008B984
:10252000F1BD304601F0C6BD0000000070B50022CC
:1025300011A3DFF8684821884FF6FF75481CA942AF
:1025400008BF4FF44040208000252088E9B253F8AE
:102550002110096800E0C96849B1CE8A8642FAD1E3
:10256000521C90B2B0F5804FE5DB002070BD6D1CB1
:10257000E9B20429EADB70BD4800002044000020D5
:102580004C00002050000020B868A04203D1C06871
:10259000B8607047084620B1C168A142FAD1E1682D
:1025A000C16070472DE9FE4FDFF8D864DFF8D8A48A
:1025B00071787068401C7060491C717036E1ED687C
:1025C000002D00F08581287D38B90AF128034FF4E9
:1025D0007C720AF5C07100F080F92B7D012B07D1C8
:1025E0000AF1280340F2F1320AF5D67100F075F9CC
:1025F000287D0A2807D10AF1280340F2F2320AF5B1
:10260000EC7100F06AF97078697F8142D7D0297D3A
:102610004FF0000B6877D84605F1400905F19407A3
:10262000022906D199F802000628A8BF4FF0010B35
:1026300068DA99F802200C2AA8BF4FF0010B54DA8F
:102640007878C0B10FF610010844397810F8010C01
:102650008142BCBF491C39703978814245DB28462C
:1026600001F0ADFA002840D13870787806283CD8BF
:10267000401C787039E0B5F9300003005CBF401CA5
:102680002886D9F82C0080B3B5F93030B9F90000AC
:1026900083422ADB02290ED00C2AB5F93E100FF234
:1026A000A873B5F93C0028BF0C229A5601EBE00153
:1026B0009140A9F80010A5F8308005F1400005F11F
:1026C000400100898A8B698E904288BF104640087D
:1026D00049008AB2904238BF0846A9F80A00688EBD
:1026E000A9F80800284601F0DBF9297D062909D15F
:1026F000A87EC10606D57268286A121A292A28BF40
:102700000BF1010B287A010729D5287D042818BF71
:10271000072824D17168286ADFF884264FF4FA73F9
:10272000081AD9F850105218B2FBF3F3834204D2BE
:102730000BF1010B4FF0010811E0BA78DFF86436B5
:1027400003FB02114FF4FA72B1FBF2F1814206D29F
:10275000284601F00EFA10B9B878401CB870D9F8C4
:10276000300078B1B9F9003071682A6A4FF0060C70
:1027700013FB0CFC891A614504D300F01BF90020FF
:10278000C9F83000287D0BF10101032804D17068DD
:102790002A6A801A292805E0092805D170682A6A62
:1027A000801AF12828BF8B465FFA8BF0002840D0B2
:1027B000D9F84C70284600F038FA6CB1306985427F
:1027C00007D10AF1280340F289420AF5027100F0AC
:1027D00084F8E868E0600CE03169A94207D00AF1AA
:1027E000280340F28D420AF50D7100F076F8E86892
:1027F0003061B8F1000F0AD0288B2B1D2A460190BA
:10280000E98A0091696AD9F80C0001F0F3F8D5F86B
:102810001080FFF71EFE0021002F317008D06FF0EE
:102820000C014046B8473078002801D000243569B3
:10283000C6E62C46ED68E07E217F401CE076C0B203
:102840008842F5D30020E0763070D4F888203AB181
:1028500020692146904731780029E7D1002801D12D
:1028600000F070F8ACE6A84207D00AF1280340F265
:10287000CF420AF52E7100F030F8E8687061FFF77A
:10288000E8FD45B3287D0A2807D00AF1280340F265
:10289000BD420AF5187100F020F87068296A401AE4
:1028A000F12812D3284600F0C0F9002C7069DAD064
:1028B000854207D10AF1280340F2CB420AF5247180
:1028C00000F00BF8E868E060D9E72C46ED68D8E73F
:1028D00000247569D5E7BDE8F78F504601F0EABBE3
:1028E00070B5DFF8AC546878401C68702C691EE045
:1028F0006077A07EC10705D500F021F8A17E01F028
:10290000FC01A176A07E010705D500F0F700A076B6
:102910002046FFF719FC606FE66838B100212046B9
:10292000297000F012F828780028DFD134462CB145
:102930006878617F8142DBD1E468F8E770BD40F0E0
:102940000200A076204600F0F3BE2DE9F0410546D6
:102950000020D5F880406F6F03462946002C7E7B0F
:1029600068673A4602D02869A04701E000F04BF8BA
:1029700001006FF00C0812D1B00618D5288DB0F503
:10298000066F1CBF401C2885D5F880407CB12869A3
:10299000002300222946A047404508D101E04045D8
:1029A00001D1404604E06F676FF0040000E00020B2
:1029B000BDE8F08110B5002803E0046800F003F8DA
:1029C0002000FAD110BD10B5040009D0606808B12C
:1029D000FFF764F821460320BDE8104001F030BA4B
:1029E00010BD38B50546032001F0FCF9040001D103
:1029F000002032BD1022294601F0C4FF6068FFF7B5
:102A0000B8F8204632BD10B51400084607D0218919
:102A1000FFF74CFD2046FFF741F8002010BD002BCA
:102A2000FBD1BDE81040FFF7E9BB0828B0B504466C
:102A300018BF092808D0144840F2DC5200F12803DE
:102A40000FF2883101F036FBDFF844330021002219
:102A500018695F6809E0057DA54205D1056A7D1BFF
:102A60008D4224BF29460246C0680028F3D12AB10E
:102A700000211046BDE8B040FFF7EBBBB0BD000041
:102A800071AA00203C000020E4E00008F8B50646EA
:102A900000F070F80400BE4D42D1002200216869A8
:102AA0006C6806E0036AE31A934224BF1A460146A3
:102AB000C0680028F6D111B10846FFF728FC00F0E5
:102AC00059F804002CD10920FFF7AFFF00F052F8AD
:102AD000040025D10820FFF7A8FF00F04BF8040000
:102AE0001ED1802E2869ACBF7F22324600230021F0
:102AF0000DE0447DA24221BFD5F804E0076AAEEBA9
:102B000007079F4202D33B4601462246C068002881
:102B1000EFD111B10846FFF7FAFB00F02BF804469D
:102B200024B39821204601F039FF667504F148006E
:102B30004FF486614FF4066201834FF40673628599
:102B400006262285FF2263864FF0FF33A4F84060FB
:102B5000E6870126A272238606806A6822626B7865
:102B6000914A637741809149816382642046F2BD36
:102B70007CA90020012001F035B9000000BF4020F1
:102B800084E700B10161704738B504000D460DD0EF
:102B9000207D012808D1804840F2BB6200F1280363
:102BA00000F5387101F086FAC4F8805031BD38B5AF
:102BB00004000D460CD0207D012808D1764840F253
:102BC000CC6200F1280300F5427101F073FAE56769
:102BD00031BD38B50C4670B100F1140528780128D4
:102BE00008D16D484FF4DC6200F1280300F54C7108
:102BF00001F060FAAC6731BD18B1027D012A08BF4F
:102C00008161704770B504460D46207D1646012847
:102C100007D1614840F2037200F128036FA101F06F
:102C200049FAC4F88850267770BD38B50546287D26
:102C300000281CBF0A28012819D005F16404206966
:102C400018B1FEF72BFF00202061E068FFF7B2FE0D
:102C500000204FF0FF31E06029866068FFF7AAFE90
:102C6000A068FFF7A7FE00206060A060208031BD53
:102C7000024638B510680C46A04203D1C068106007
:102C800006E0084620B1C168A142FAD1E168C160FE
:102C900000222046E260FFF7C8FF207D0A2809D005
:102CA000012827D0A07EC10704D5FFF748FE217D6B
:102CB00001291FD0A06EDFF8E05038B105F12803DC
:102CC00040F253724DA1284601F0F4F9E06E38B19C
:102CD00005F1280340F254724EA1284601F0EAF9AA
:102CE000206F38B105F1280340F2567250A12846F2
:102CF00001F0E0F900202075E08231BD244A90699E
:102D0000516808189061704710B50446084601F0F4
:102D100057FE00281EBFC08C01B2002904D02838FD
:102D200080B2844288BF0446204610BD38B50446B0
:102D3000084600E0284638B101682268C56891421B
:102D400008BFFFF7E4FAF5E731BD70B504000D46A2
:102D50001CBF2268002A18D00D4E3169FFF7E6FF2C
:102D6000B1682046FFF7E2FF002D1CBF286800284D
:102D70000BD0F068002807E002682368C1689A4217
:102D800004BF2E6806600800F6D170BDC8FD0008BB
:102D90003C000020A9230008E4E0000828010020EE
:102DA000B84C0A00F824010000DD6D00072A000875
:102DB0006E65775F7263765F616E6E5F776E6420BB
:102DC0003C3D20307866666666000000696E76617C
:102DD0006C6964207374617465000000696E7661CB
:102DE0006C696420736F636B6574207374617465C0
:102DF00020666F7220706F6C6C000000756E7365DA
:102E00006E74207365676D656E7473206C65616B9D
:102E1000696E6700756E61636B6564207365676DCD
:102E2000656E7473206C65616B696E6700000000ED
:102E30006F6F736571207365676D656E7473206C59
:102E400065616B696E6700000102030405060707F0
:102E5000070707070700000003060C18306078001A
:102E60002DE9F0410E461146891905461431984660
:102E7000002289B20120FEF729FC04002DD06089D0
:102E800006F11401884204DADFF8FC0B732200F02B
:102E900001FEE88A67683606B60E761D360346F0F0
:102EA0001006FFF76BF83880288BFFF767F87880FB
:102EB000C7F80480686AFFF767F8B860B0B2FFF738
:102EC0005DF8B881688DFFF759F8F88100203882E5
:102ED0007882688D6A6A1018E8622046BDE8F08141
:102EE00038B50546AC6EC4B100E004462068002841
:102EF000FBD1E1688889FFF741F810F0070F0CD18A
:102F00000120FFF73BF8E1688A8910438881A87E99
:102F100040F02000A876002032BD28460121BDE8FF
:102F200034403DE32DE9F047089D81460F46924627
:102F30009846E8074CBF04260026032000F052FF05
:102F4000040003D13846FEF7A9FD19E0A572002060
:102F5000206067603989B14207DADFF82C0BBA22AA
:102F600000F158031AA101F0A5F838891421801B3B
:102F700020813846FEF78EFD20B12046FFF723FD65
:102F8000002023E060684168E160B9F81600FEF7B0
:102F9000F5FFE1680880B9F81800FEF7EFFFE16877
:102FA00048804046FEF7F0FFE2685060701006EB84
:102FB0009076B610761D4AEA063188B2FEF7DEFF3B
:102FC000E1688881E268002050822046BDE8F087F1
:102FD000702D3E746F745F6C656E203E3D206F7087
:102FE000746C656E00000000F8B591420D461E46F7
:102FF0002C461BD2079989070BD4069FBB7E590626
:1030000014D4089929B1BB6E002B04BFF96E0029B6
:103010000CD02B4603F21B239B08B2EB830F31BF6E
:10302000144605F21B244FF6FC731C400022214677
:10303000FEF74CFB040001D10020F2BD206848B12E
:10304000DFF8440A4FF4887200F158030FF630415C
:1030500001F030F86089401B308020462581658171
:10306000F2BD2DE9F04F064600208DB08246079054
:103070001C46059000250B900A90ADF80C000990B5
:103080000C90B6F85E00738E4008834234BFADF8F2
:103090001230ADF81200BDF8120008B9ADF81230C8
:1030A0000891DFF8E48951B908F158034FF4C97267
:1030B00008F5947100F04BFC6FF00F00CBE1307D10
:1030C000042818BF072805D002281CBF03286FF06A
:1030D0000A00F3D1ADF81020EAB106F15E00418894
:1030E00091422FD3808808282CDC4FF6FD72904245
:1030F00028D2002806F16800416817D0002904BFD3
:10310000B06E002807D108F158034FF4AB7208F1F4
:10311000B80100F01CFC06F15E00B16EB0F804B01E
:103120008DF80E40002900F0D88011E0002904BF7E
:1031300000680028EFD008F1580340F2591208F156
:10314000F401E6E7B07E40F08000B07681E1014610
:1031500008680028FBD10591897ABDF81200CA07DA
:1031600005990A894CBF04270027BA18904207DA4C
:1031700008F1580340F2C7120FF6183100F0E7FBD0
:10318000059ABDF8121006F15E031089091ACF1BCB
:10319000D9880029ADF80C1037D0B8B2884207D2D0
:1031A00008F1580340F2D9120FF6003100F0CFFBBE
:1031B000BDF80C10BDF81020DDF814A0914234BF0A
:1031C00008461046B9B28142B8BF384604DBBDF8A4
:1031D0000C00904288BF104680B2BDF80C400990A8
:1031E00009A805880999641BADF80C40BDF80C00CE
:1031F0007F1A002818BF954207D008F1580340F203
:10320000E1120FF6C82100F0A2FBBDF810008542C4
:1032100061DAB8B200281EBF0599088900285AD083
:10322000BDF81010B8B2491B8842B1BFADF8187094
:10323000BDF81020521BADF8182008999DF80E001B
:10324000DDF814A0BDF818904C19C10715D59DF8EC
:103250000E00BDF8181001220096029203AB0190F7
:10326000BAB20420FFF7C0FE0028079028D04068BB
:103270004A46214601F086FB25E0DAF8041000E01A
:10328000014608680028FBD1087B012811D1488934
:103290004A680899104488420BD13DB108F158039F
:1032A0004FF4037208F5AE7100F051FBCDF8309089
:1032B0000DE0012249460420FEF708FA0028079095
:1032C00000F0A98044600798FEF74AFC8344BDF8EB
:1032D00018004519ADB20A9C40E006F15E01C888AD
:1032E0000028F8D008F1580340F2252208F5C471EF
:1032F00000F02DFBEFE70B9838B908F1580340F2C6
:1033000085220FF6F81100F022FB0B98C0F800A000
:1033100020E05146FEF746FC3846FEF721FC5844B3
:103320001FFA80FBBBF10A0F80F237814FF6FD7068
:10333000834580F03281002100220091B36D39462F
:103340003046EB18FFF7EEFD0028824651D0002CE6
:10335000D1D154464D44CDF82CA0ADB2BDF81000EB
:10336000854280F20681BDF81220401B81B2914255
:103370009DF80E1034BF1FFA80F991460898401945
:10338000CA07069023D5002CBDF81220009603AB87
:1033900049460CBF0120002002909DF80E000190CC
:1033A0000020FFF721FE0028074622D078894845F3
:1033B00007DA08F1580340F2412208F5DC7100F009
:1033C000C6FA069978684A4601F0DCFAA4E7BDF827
:1033D0000C0038B108F1580340F24B220FF60C11E3
:1033E00000F0B5FA012249460020FEF76FF95FEAC6
:1033F000000A00F0D08006980022CAF804000021DC
:103400000020FEF763F9002807467FF482AF0A9494
:103410005046FEF743FBB17E41F08001B17607983C
:1034200008B1FEF73BFB0A9808B1FFF7C3FA06F1B3
:103430005E01888868B106F168004168002904BF10
:103440000068002805D108F1580340F2023200F06C
:103450007CFA4FF0FF300DB0BDE8F08F2189594460
:103460002181206848B96389606808995A461844E0
:1034700001F088FA6189594461812468002CEDD1FA
:103480000598018959440181BDF80C0006F15E04DC
:10349000E0800799B1B1059838B908F1580340F2B6
:1034A000BB2208F5FC7100F052FA059807994068B4
:1034B000FEF778FB0598079A059B0189108941184A
:1034C000198125E00C9989B211B3059800281CBF19
:1034D0004068002807D108F1580340F2C12208F5DE
:1034E0000C7100F034FA05980C99426803E01389D6
:1034F000CB181381024610680028F8D1108953892F
:1035000008181081CB185381059802898918018108
:10351000059800280CBFB7660760B16D4919B16501
:103520006088451B65800099A180A08868B106F17C
:1035300068004168002904BF0068002805D108F12F
:10354000580340F2ED2200F000FABAF1000F1CBF60
:10355000DAF80C0000280AD05FEA897107D4082045
:10356000FEF70CFDDAF80C108A89104388810020E0
:1035700071E709990898BDF810509DF80E902746FC
:10358000CDF800B000293FF47FAF059ADDF824B0F4
:103590005468089072E70A943DE70A94384638E781
:1035A0002DE9FC478846002718F0030F0546DFF891
:1035B000D89407D109F1580340F21B3209F51A716A
:1035C00000F07EF805F162063088082803DC4FF62B
:1035D000FD71884202D35FEAC87021D55FEA887125
:1035E00046BF01274FF0040ABA4600225146002088
:1035F000FEF76CF8040013D06089504507DA09F132
:10360000580340F2413209F5307100F059F8009743
:10361000AB6D424621462846FFF784FC040006D1E4
:10362000A87E40F08000A8764FF0FF3046E0207B77
:1036300010F0030F07D009F1580340F249320FF29E
:10364000F06100F03DF8208938B109F1580340F2EB
:103650004A3209F53F7100F033F805F1680739681F
:1036600011B93C6004E0014608680028FBD10C60F9
:10367000002018F0030F708002D0A86D401CA865D0
:103680005FEAC87103D5A87E40F02000A876606884
:10369000FEF766FA31884018308080B268B17868E9
:1036A000002804BF3968002907D109F1580340F206
:1036B0006D3209F54A7100F003F80020BDE8F68785
:1036C000484600F0F7BCFEB50646F06CFEF75CFC21
:1036D0000346002200213046FFF7C2FB040006D15A
:1036E000B07E40F00300B0766FF00100FEBD301DEB
:1036F00001F066F910B96FF003070BE002900620A5
:103700000190717A321D20460091B37A314601F062
:103710003CFA07463D462046FEF7C0F9B07E002D34
:1037200014BF40F0030000F0FC00B0763846FEBD48
:103730002DE9F84F0546DFF850832C7D012C07D189
:1037400008F1580340F2ED3208F5547100F0FFF82B
:10375000DFF838432368AB4200F0E78005F1480703
:10376000B98A3888814234BF00910090A87E3C6AB3
:1037700081070BD534B1E2685068FEF705FC00F014
:10378000DDF803D22846BDE8F24F9CE77E6A26B1F9
:1037900000E0064630680028FBD1281D01F010F932
:1037A0005FEA000907D0002D1CBF2868002807D158
:1037B00019F1040002D16FF00300B7E0006828603F
:1037C000002C1AD000F0AAF9696C2389009A401ADB
:1037D000C3189A4212D2100010D01146BA8A9142F0
:1037E00004BF786A002809D105F1940041780029C6
:1037F00003D100220123027043708EE000F08EF9A5
:1038000000F09CF8F9D3E2689089FEF7B7FB400717
:1038100007D508F1580340F246420FF22C5100F050
:1038200096F8786A98B1AA7E12F0440F0FD1396ADF
:1038300029B1086858B909896B8E994207D2388B2B
:1038400028B1798B082902DC12F0A00F65D0287D01
:10385000022806D01020FEF791FBE1688A89104308
:1038600088814A462946204600F074F8010027D195
:1038700020683862297D022903D0A87E00F0FC0070
:10388000A87600F04BF9824600F0F5F910F003013C
:10389000208918BF0121504408187968091A48BFC7
:1038A000786000F0E8F910F00300218918BF0120CA
:1038B00041182BD000222260786A30B97C6223E064
:1038C000A97E41F08001A97630E0E2685068FEF7F9
:1038D0005BFBF168824600F022F9BAEB000012D5DA
:1038E00005F16C0ADAF8000010B3C16800F017F9AE
:1038F000E168834600F013F9BBEB000048BFDAF83B
:1039000000A0EFD414E03460264602E02046FFF722
:103910005AF83C6A002C7FF471AF386A08B900216C
:10392000B983A87E00F07F00A8760020BDE8F28F62
:10393000DAF800102160CAF80040EAE7696C2389D0
:10394000009A401AC018824270470FF2C4314046B4
:1039500000F0B0BBFEB504460E4660681546C1894E
:10396000012901D00020FEBD706AFEF70DFBE16861
:103970008860708DFEF702FBE168C881728D706A05
:1039800001F114078218F262A07AC10709D5311D2E
:103990004FF40670FFF7B8F940F00170FEF7F4FA43
:1039A0003860B6F93000002844BF00213186706BC2
:1039B00038B937490A687263E3685868FEF7E4FA71
:1039C000B0636068E16842684160048943898A1A8B
:1039D00092B29B1AA21A4381028100220A82062116
:1039E0000295321D0191737A31460093B37A01F04A
:1039F000CCF8FEBD2DE9FF478146884615469A461C
:103A0000002214210120FDF761FE040039D06089F5
:103A1000142804D21C4840F24D5200F03BF80C9898
:103A20000D9E6768FEF7AAFA38803046FEF7A6FAC0
:103A300078804846FEF7A8FA78604046FEF7A4FA78
:103A4000B86045F21400FEF799FAB88146F2080012
:103A5000F881002139825046798200F0B1FF50B1DF
:103A6000029006200022019000922946FF23524630
:103A7000204601F08AF8204604B0BDE8F047FEF782
:103A80000DB8BDE8FF8700006CDD00087CA90020B0
:103A90004000002000F1580300F1280100F00ABBAB
:103AA00010B500F134039A6B0AB910BD0A461168CB
:103AB0000029FBD1596B002411609A6B997B5A63E2
:103AC0009C63FF291CBF491C99731C60BDE8104012
:103AD0002EE6F8B500F13405AC6BF4B1216800F1C5
:103AE0006806A963306850B1C16800F018F8E16851
:103AF000074600F014F83F1A48BF3668F2D4316820
:103B000021603460206808B900222A86A87BFF283B
:103B10001CBF401CA87300202860F1BDE168486804
:103B2000FEF732BA38B5044604F14805686AF8B1C0
:103B3000A17E48071CD42046FFF7CBFFA88A29881E
:103B4000814238BF084600EBD070618E401082B2CF
:103B5000B2EB410F38BF48006880688801EB410133
:103B6000091800202980A27E208642F00402A27655
:103B700031BD3EB50546E86C401EFEF705FA03462A
:103B8000002200212846FFF76BF9040002D14FF014
:103B9000FF303EBD281D00F013FF10B96FF0030584
:103BA00008E000F062F8AB7A2A1D2946204600F0B2
:103BB000ECFF05462046FDF771FF28463EBD2DE986
:103BC000FF410646F46E1CB9B46E0CB9002049E002
:103BD00000F051F8C00704D521894D1EAD41ED0F0D
:103BE00000E00025E06885F00102002143683046CE
:103BF000FFF736F95FEA000808BF4FF0FF3031D019
:103C0000D8F804704DB11120FEF7B8F9BA894CF21A
:103C1000FF010A401043B88109E060682189012250
:103C200003895B1A9BB207F11401FEF77FF8FFF7D7
:103C300075FFF16C401C091A48BFF064301D00F09C
:103C4000BFFE10B96FF0030408E000F00EF8B37A7D
:103C5000321D3146404600F098FF04464046FDF7CD
:103C60001DFF204604B0BDE8F0810290062000212F
:103C7000019000917047E0688089FEF77FB90000ED
:103C80006E65656420756E636861696E6564207039
:103C9000627566006D73735F6C6F63616C2069732E
:103CA00020746F6F20736D616C6C0000696E636FC0
:103CB0006E73697374656E74206F76657273697A5A
:103CC000652076732E20737061636500696E636F83
:103CD0006E73697374656E74206F76657273697A3A
:103CE000652076732E206C656E0000006F7665721D
:103CF00073697A65203D3D20300000007072657662
:103D00005F73656720213D204E554C4C000000003C
:103D10007463705F77726974653A2076616C696468
:103D2000207175657565206C656E677468000000AC
:103D30007365672D3E746370686472206E6F7420C3
:103D4000616C69676E656400525354206E6F742015
:103D5000657870656374656420686572652100002C
:103D600070B58168002200230A604268D21C920864
:103D7000920005E00C685B1C14600A6005882A4408
:103D80004688B342F6DB70BD38B50024374DA0B28B
:103D9000641C55F82000FFF7E3FFA1B20D29F6D30C
:103DA00031BD38B5044600F077FA0546A0680468CE
:103DB0009CB12168016014F0030009D02B4840F247
:103DC000491200F1800300F15C01343000F072F917
:103DD000284600F06AFA204632BD284600F065FA0F
:103DE000002032BD0D2810B5204C0ADB04F1800301
:103DF00040F287121EA104F1340000F05BF90020AC
:103E000010BD54F82000BDE81040CAE738B504469C
:103E10000D4615F0030009D0DFF8500040F29D1266
:103E200000F180031AA1343000F044F900F034FAB4
:103E3000A1680A682A600D60BDE8324000F035BA1A
:103E40000D2810B5094C0ADB04F1800304F134009D
:103E500040F2DB1216A1BDE8104000F02BB921B1F1
:103E600054F82000BDE81040D0E710BDDCF3000896
:103E70006D656D705F6D616C6C6F633A2074797005
:103E800065203C204D454D505F4D415800000000DD
:103E90006D656D705F667265653A206D656D207049
:103EA000726F7065726C7920616C69676E65640011
:103EB0006D656D705F667265653A20747970652016
:103EC0003C204D454D505F4D4158000080B5FEF7F8
:103ED00086F86A4A1168002902BF694B18680028F1
:103EE00005D000226749FA20BDE8084036E066495F
:103EF000086001BD644A1068002800D0704710B502
:103F00005E4B1968002902BF5D4C2068002805D06F
:103F10000121FA20116000225A4907E010BD10B5B6
:103F2000044660688047224620685849BDE8104032
:103F300014E0000038B5554C58A505F1080200F012
:103F400009F805F1100200F005F801F07BF850497E
:103F5000486031BD21464FF47A70FFE7F8B5054659
:103F60000E4617460A20FFF73DFF04000AD14948D4
:103F700001B000F16803D42200F12801BDE8F0404F
:103F800000F098B801F05EF80146414B186810B98E
:103F90002A46596002E05A6849198A1A00212160AC
:103FA000A660E760626028B141688D4204D24D1B73
:103FB000456020601C60F1BD024661685368CB1A01
:103FC0006360116869B14E68B34228BF0A46F4D2F3
:103FD00007E09D4202D24068451965602160146087
:103FE000F1BD0029F5D04E68F31A4B60F6E72DE9D4
:103FF000F04781468A46DFF8A080254E336833B902
:10400000514648460022BDE8F04700F09AB801F05A
:1040100019F87268821A30684068904208D3821A90
:1040200006D05146484600F08CF810F1010F22D11D
:1040300030680028E4D001F005F87768C71B3168C4
:104040000029DBD048688742E1D372683F1A8218A2
:104050007260086830608D68CC680A20FFF7F0FE57
:104060002800ECD0404600F0F9F82046A84740462A
:1040700000F0F9F8E3E7BDE8F08700004C0000200D
:1040800050000020CD3E000864AA00201F3F000819
:104090001CAA00208CF50008FCA90020FA000000F2
:1040A000DF1F0008E803000015640008E8030000B3
:1040B000F59900080EB4C0B5024603A8002101908E
:1040C000009101AB0121044878440C3001F074F8F0
:1040D00006BC5DF810FB00BF83BC0000DCB500BF70
:1040E00077A30446D3E90067CDE90067009100217A
:1040F000684602F0DEF8206010B94FF0FF30D6BD00
:104100000020D6BD10B50446206802F047F92068AB
:10411000BDE8104002F04AB938B504460D462068A3
:104120004FF0FF32294602F0C9F80028F7D131BD1F
:1041300080B50068002202F0C1F808B14FF0FF30EE
:1041400002BDFEB505460E46144601F0E4FF0746E3
:104150006CB129682246684602F0CBF80098102816
:1041600002D1019931600AE04FF0FF30FEBD2968AD
:104170004FF0FF32684602F0BCF80198306001F061
:10418000CAFFC01BFEBD1FB50C4601680022684671
:1041900002F0AFF8009A102A03BF019820600020B7
:1041A0004FF0FF3004B010BD37E03CE038B500BF41
:1041B00041A204460D46136800930121684602F0AF
:1041C0000CF8206010B94FF0FF3032BD15B9002156
:1041D00002F016F8002032BD70B505460C4601F01D
:1041E0009AFF06463CB12868214602F009F848B11A
:1041F0004FF0FF3070BD28684FF0FF3102F000F83B
:104200000028F8D101F087FF801B70BD006802F024
:104210001EB8006802F043B800BF006800B101207A
:104220007047000000BF00210160704780B500BFEB
:1042300025A001F096FF1F49086001BD1CB500BF15
:104240001EA104460A686846009201F08AFF2060B9
:1042500010B94FF0FF3016BD002016BD00684FF0BA
:10426000FF3101F081BF21E02DE9F84185B006461C
:104270000C4690461D460C9F6846142100F08EFBAC
:104280000096414601946846ADF80870049501F027
:104290004AFF06B0BDE8F08180B506484FF0FF3117
:1042A000006801F061FF012002BD0248006801F0D2
:1042B0007CBF000060AA0020000000000000000099
:1042C0000000000004000000000000007CB5734CFA
:1042D000216809B16068884704F10C0074A5FFF7F4
:1042E000BDFF6F4E06E006F12803692229463046DD
:1042F000FFF7E0FE04F10C00FFF7B5FF694604F19B
:104300000800FFF774FE04F10C00FFF7A7FF009808
:104310000028E8D001460A78022A04D017D3042ADC
:1043200011D00AD313E0816802465068D2689047E2
:1043300000990920FFF784FDDCE780684A68904710
:1043400000990820F6E780684A689047D2E706F1AE
:1043500028039B22CAE72DE9F04100F04DF818B977
:104360004F48B52200F052F80920FFF73BFD04004A
:104370000ED002202146207008F108006560A6607A
:10438000E760FFF7D5FE28B121460920FFF758FD69
:104390004FF0FF30BDE8F08191F82F2012F0180F98
:1043A00014BF404A404AD6E72DE9F04100F024F816
:1043B00018B93B48EE2200F029F80820FFF712FD5B
:1043C000040002D14FF0FF300BE00320002F2070DB
:1043D0002146656008F10800A66004D0FFF79CFE46
:1043E0000020BDE8F081FFF7A3FE0028F8D02146A9
:1043F0000820FFF725FDE5E70546DFF8A0800E461B
:10440000174608F10800FFF7CFBE000000F12803AF
:104410002FA1FFF74FBE70B500F008F82846A0475F
:1044200006F10C00FFF71FFF002070BD04461B4E75
:104430000D4606F10C00FFF711BF00007CB50446E5
:104440000D4601F0BAFF154E0621346006F1080052
:104450007560134CFFF742FE40B104F1280340F2AF
:10446000D51204F188012046FFF724FE06F10C0066
:10447000FFF7E4FE40B104F1280340F2D91204F141
:10448000AC012046FFF716FE03204FF48063009036
:104490000022064912A0FFF7E7FE73BDF0A9002035
:1044A000BCF4000861AD0008154A0008CD420008C0
:1044B00074637069705F7468726561643A20696ED4
:1044C00076616C6964206D657373616765000000D7
:1044D000496E76616C6964206D626F78000000003F
:1044E00074637069705F74687265616400000000D5
:1044F000F8B50546DFF898432068DFF898638542F1
:1045000007D206F1280340F25D120FF28C3100F061
:10451000B7F863689D4207D306F128034FF4AF72E2
:104520000FF28C3100F0ACF8287938B106F128038D
:1045300040F25F120FF2943100F0A2F8288840F2A6
:104540004161884207D306F128034FF4B17206F1A6
:10455000840100F095F82A8821688B189D420ED0BE
:10456000187960B96668B34209D0A068984208BF5C
:10457000A5601E888F1C2E8018886E1A3E526B888C
:104580000B44AB420BD0187948B9A668AE4208BFBD
:10459000A36028885A1A891C18802B88CA52F1BD3A
:1045A000BB48002300F10F01890820B589004FF4B2
:1045B000C862016001254B800B7101F5C8630A8058
:1045C00043601D711A805A80816000F5CC60FFF74E
:1045D00035FE50B1AF484FF4CC7200F128030FF212
:1045E0000831BDE82040FFF765BD20BDF8B50400E7
:1045F00045D014F00305A74E07D006F128034FF469
:10460000D67206F1B00100F03BF8A14D2B689C4238
:1046100002D36868844206D306F1280340F2AF1241
:10462000B8A100F02DF82868844202D369688C4252
:1046300005D3FFF731FEBDE8F240FFF736BE05F5C2
:10464000CC674FEA0700FFF709FE14F8040C30B9F5
:1046500006F128034FF4E072B0A100F011F8002039
:1046600004F8040CA968A4F10800884238BFA860C7
:10467000FFF73EFF3846BDE8F240FFF7F4BDF1BD5D
:104680003046FFF717BD0000C91C4FF6FC722DE93C
:10469000F84311400D460C2932BF0C2540F241630E
:1046A000994231D281467A4F3868DFF8E8818145F6
:1046B00002D37E68B14507D308F128034FF4FA729C
:1046C0009BA14046FFF7F6FC3E68B14502D37868EF
:1046D000814504D3FFF7E0FDFFF7E7FD4CE039F833
:1046E000081CA9F10800861B891BA1F10804A4B2CB
:1046F000AC4207DA08F1280340F2062292A14046B4
:10470000FFF7D8FCAC4201DA002036E0A54233D0F6
:1047100007F5CC684046FFF7A1FD39F8082C396849
:104720008B18BA68187958B9AD190835ADB248195F
:104730009A421C8808BFB8600022027104800FE012
:1047400005F11400844214D3AD190835ABB2C81872
:10475000904238BFB8600022027139F8083C0380EB
:10476000468029F8085C0088B0F5C86F1CBF891C1A
:104770000D524046FFF777FD4846BDE8F283000042
:104780002DE9F843A8B1C61C4FF6FC7006400C2E6C
:104790000CD20C263E4DB14605F5CC684046FFF7DD
:1047A0005DFDA9682A688B1A9BB206E0B6F5C86F52
:1047B000F0D90020BDE8F2833B88C9F5C864A34264
:1047C0002ED2D7183C4620790028F5D12088C01A6F
:1047D00008384845F0D309F11407B84212D3F61847
:1047E0000836B0B21044002707712788078043803D
:1047F0000123268023710088B0F5C86F04D01044CF
:10480000468001E0012020718C42224E19D16B6854
:10481000087948B199421CBF08881118F8D103E003
:104820004046FFF720FDC4E79942A96018BF002861
:1048300000F0078006F1280340F2CF224AA1FFF7DB
:104840001FFF4046A144FFF70EFD686809F108010B
:10485000884207D206F128034FF4357206F1D401DD
:10486000FFF70EFF14F003000FD006F1280340F20B
:10487000D62206F58271FFF703FF06F128034FF4F5
:10488000367206F59A71FFF7FBFE04F1080091E716
:1048900034940020F4ED0008706C75675F686F6CED
:1048A00065733A206D656D203E3D2072616D00009C
:1048B000706C75675F686F6C65733A206D656D200D
:1048C0003C2072616D5F656E64000000706C7567FE
:1048D0005F686F6C65733A206D656D2D3E7573650D
:1048E00064203D3D203000006661696C6564207481
:1048F0006F20637265617465206D656D5F6D7574A1
:10490000657800006D656D5F667265653A206C655F
:1049100067616C206D656D6F727900006D656D5F0C
:10492000667265653A206D656D2D3E757365640030
:104930006D656D5F7472696D3A206C6567616C209E
:104940006D656D6F727900006D656D5F7472696D74
:104950002063616E206F6E6C7920736872696E6B74
:10496000206D656D6F7279006D656D5F6D616C6C4A
:104970006F633A20216C667265652D3E75736564C0
:10498000000000004AB1000011F8013B521E00F87F
:10499000013B1CBF11F8013BF8E77047002201F012
:1049A0001FBDB1F5807F02D34FF0FF30704701701B
:1049B000012070470078401E8041C043C00F7047FF
:1049C0000246AE4870B500681468A8B190F82F3060
:1049D00003F0050105290CD1416851B1856805EA4C
:1049E000040629408E4206D0990702D4C3689C422F
:1049F00001D00068E9E770BDA148006840B190F8B7
:104A00002F2002F00502052A02D141680029F2D1C7
:104A1000002070BD2DE9F84F06468B46776839783F
:104A20000809042834D1880000F03C087888FDF794
:104A3000A5FA31890446884203D221463046FCF764
:104A40006DFF7089404523DB3189A14220D3B8F145
:104A5000140F1DDB38698B4D6861F8682861287D6B
:104A600000F0F000E02817D19BF82F10CA0737D5C7
:104A7000DBF80400A0B35C4628695946FCF79EFDAC
:104A800030B9287C00F0F000E02818BF002C2BD1B2
:104A90003046FDF703F831E04FF001095C46DFF8DE
:104AA000DCA194F82F00C1070AD5606840B16A699B
:104AB0008242E1D021461046FCF780FD0028DBD180
:104AC000B9F1000F0ED0287D7F2809D04FF00009E2
:104AD000DAF800405C4508BF2468002CE1D1CBE740
:104AE0000024C9E72468F5E7F8884FF63F710842CB
:104AF00007D0304601F03FFE060001D1002042E021
:104B000077682C60C8F10001C5F804B009B2AF6045
:104B10003878800000F03C00A8813046FCF7BAFFEE
:104B2000787A01280DD0062806D011280ED15946D2
:104B3000304602F05AF81FE059463046FBF75CFB5E
:104B40001AE05946304602F021FA15E0686921461C
:104B5000FCF734FD68B9287D00F0F000E02808D0AB
:104B600041463046FCF798FF77600221304602F05C
:104B70009BFA3046FCF792FF002028606860A8602E
:104B8000A88128616861BDE8F28F7FB50A9E0C4656
:104B900022B100291ABF09680029341D0999089D0E
:104BA000019121460296009500F002F804B070BD14
:104BB0002DE9F84306468846F78914461D46DFF876
:104BC000C890012F00F0088009F1280340F2333229
:104BD00030A14846FFF76EFA002C38D01421304639
:104BE000FCF758FF10B16FF0010045E0708977685D
:104BF000142808D209F1280340F2613209F18C012E
:104C00004846FFF757FA099808993D72452278728D
:104C1000206838611D4D3A7079703089FDF7AEF922
:104C200078800020F8802888FDF7A8F9B8802888C7
:104C3000401CB8F1000F288003D115490868F860BE
:104C400002E0D8F80020FA600021798103E0726860
:104C50006C46106900900A9BD88C40B1318988421B
:104C600005D222461946304601F066FE04E0184699
:104C70005B69224631469847BDE8F28304AA0020CA
:104C800008AA0020D8A90020DCF700086CAA0020A0
:104C9000C8FD0008702D3E726566203D3D20310044
:104CA00070B586B0044668461421FFF777FE246885
:104CB000DFF88054AC4258D1DFF87C04066846F037
:104CC00000760660016801F0007100F050F843F0D2
:104CD00080630360016801F0806100F048F843F0F0
:104CE00000630360016801F0006100F040F843F0E8
:104CF00040030360016801F0400100F038F843F020
:104D000004030360016801F0040100F030F843F08F
:104D10000103036001684FF4D043DFF8200401F081
:104D200001010591059A022100930191002202924E
:104D3000032103910B220492694602F0FDF932210E
:104D400000F019F8DFF8F80302F0F6F9862100F018
:104D500012F8DFF8F00302F0EFF9002205213D2000
:104D600002F0FEFA3D2002F018FB06B070BD05917E
:104D7000059A0368704702220091032101920023E3
:104D800003910B220293694604927047DFF8B8033F
:104D9000806C01F05CBA78B5044689B00020DFF879
:104DA000A853DFF89013002300900122296080218E
:104DB000288202A86A60E1228DF8083004F12606F4
:104DC00041700121C3708380EB614FF40003827056
:104DD00068612846A9612B6202F0F4FA18B9707A6A
:104DE00040F00400707241F61C116A18042305F1AA
:104DF000CC01284602F0C6FB042305F5A67205F196
:104E00004C01284602F0FCFB0620B07069690A7864
:104E1000F2706869417831716A6990787071696976
:104E2000CA78B27168690179F1716A6940F2DC513E
:104E30005079727A30720FF25830318042F00A02A3
:104E4000727201680191012101A801F0C6F9A864FC
:104E500004A80FF250311422FFF794FD214604A854
:104E600001F061F9284602F06CFD00F075F9009838
:104E70001D2140F00B000090009A284602F02AFD08
:104E800000F06AF90AB070BD2DE9F84FAE4C4FF052
:104E90000009E76A0D46C846BE6839E00BF2F45BCC
:104EA00009F2F459A6F2F450ABEB060BA9EB060994
:104EB000B96882440026881906EB0A0840F2F453C8
:104EC00098451DD969689A1B5944FFF75BFDFF6837
:104ED0003A68002AE2D56FF0070004E04946204610
:104EE00002F0D2FB0020216841F2040211440B6958
:104EF0009C0603D5202200230A610B60BDE8F28FD7
:104F00000E4669685246D1445944FFF73BFD2D686F
:104F1000002DE3D038680028DDD43146B5F80AA06A
:104F20004FF0000B4646C6E72DE9F84F864E4FF08E
:104F30000009CDF80090304602F01AFC0028C8465F
:104F40004BD1F16B356C88B270B3032289B2042067
:104F5000FCF7BCFB5FEA000926D0D6F830B04F461C
:104F60002A46B7F80AA0444600250DE01A1B05F2B0
:104F7000F455FFF707FDDBF80CB0A4F2F4502D1B3D
:104F800082440024DBF80820796804EB0A0840F228
:104F9000F453481911199845E8D815465246FFF7B9
:104FA000F1FC3F68002FDBD1306B009905E002680F
:104FB000491C42F000420260C068B26B9142F6D3D5
:104FC00031680020B06341F20803C818C2681106B6
:104FD00003D580210022C16002604846BDE8F28FFF
:104FE00070B50546584EB06C4FF0FF3101F008F92E
:104FF0000028F8D12846FFF797FF0400F3D02A696C
:10500000294690470028F5D02046FCF747FDF1E7F8
:1050100010B5040007D14D4840F2232200F12803C7
:105020005CA1FFF747F804F130007323742203708A
:105030004270474860614749A1612046FFF7ABFED7
:10504000002010BD02F032BE38B5002304460093A4
:105050003D4D6A46012100F081F8009B03F00403F6
:105060000093226892F82F0010F0040006D050B18F
:10507000180008D1104602F0EDFE04E01900F6D049
:10508000104602F0D0FEC82001F064F8E1E73EB51A
:105090000021044601912C4D009194F82F104A07ED
:1050A0002DD5686890B34FF480520021284602F055
:1050B00011FC02F0FBFD01906A46012100F04EF860
:1050C00002F0F4FD019940F2E932401A90421DD2FB
:1050D00000988106F0D56A461F2100F03FF800983D
:1050E000C1064CBF4FF400600020E8600098410703
:1050F00059BF4FF48040A8600022AA6011E0284602
:1051000002F055FC204600F02CF837BDA868EA688C
:105110000021C003000C520340EA1242284602F06C
:10512000D9FB0021284602F089FC284602F009FC40
:10513000E8E70000008002403038024000180240DA
:105140000008024000000240443D00208CFB0008A3
:105150007D9D0008894E00086A461D21284602F000
:105160007DBB10B5044694F82F104A0707D50120DF
:1051700002F03EFF2046BDE8104002F02DBE0120A7
:1051800002F029FF2046BDE8104002F063BE000097
:10519000000000006E6574696620213D204E554C6C
:1051A0004C000000A0FD0008E14F000803000000D3
:1051B000000000005E0100002DE9F04F0FF2A41C7A
:1051C000A1B0DCE90089CDE900892A9DDFF8DC9BEC
:1051D000049100248DF843500D944FF0FF3882461F
:1051E00016461F460FE0B3462C461BF8011B0498D9
:1051F000D0470028049000F0A2800D98401C641E47
:105200000D90F2D176193078252808D1002100229E
:105210000791089209910A920B910C920DE06A464F
:105220004146304602F044FF050001D10D98A1E04F
:10523000D9D50125E6E741F0010116F8010F202834
:10524000F9D023280CD02B2804D02D2805D03028C5
:1052500009D076E041F00201EFE741F00401ECE70C
:1052600041F00801E9E741F01001E6E70F9209E09B
:105270000F98484505DA00EB800402EB4402303A0F
:105280000F92761C3278A2F130000A28F0D33078E1
:105290002E2818BFCDF8388022D116F8010F2A2801
:1052A00007D138683860761C50F8042B38600E92AD
:1052B00016E02D280CBF761C002000220E920AE07A
:1052C00040B90E9A4A4505DA02EB820403EB440327
:1052D000303B0E93761C3378A3F130020A2AEFD3C9
:1052E000ADF8401021A0317802F0ECFE08B116F8BC
:1052F000010B8DF842009DF84200682804D13078F7
:1053000068280AD1622105E06C2804BF30786C2837
:1053100003D171218DF84210761C12A806903A46EE
:1053200016F8013B02A9504600F064F838B912AAF9
:1053300002A9504600F0C8F900287FF564AF404646
:1053400018E02A2892D13A683A6052F8040B3A6081
:1053500000280F9003D540420F9041F00401761CC5
:1053600095E700000000000000000000686A6C740F
:105370007A4C000021B0BDE8F08F622820D0682868
:1053800011D06A2803D06C2827D0712825D108684D
:10539000C01D20F007000860D0E900230830086035
:1053A000194610467047002A0A680A60106803D040
:1053B000121D0A6000B217E0121D0A6080B217E0E9
:1053C000002A0A680A60106803D0121D0A6040B201
:1053D0000AE0121D0A60C0B20AE0002A0A680A60E8
:1053E000106803D0121D0A60C1177047121D0A60B1
:1053F000002170477CB50D4611461C462E69B4F15C
:10540000250200F04F811C3A00F08480121F022A0E
:1054100040F280800E3A00F00981521F59D0093ABB
:1054200078D0921E16D0521E35D0521E022A71D943
:10543000121F30D0521F00F09880521E49D0521EC9
:1054400000F0E280D21E00F0FF80921E41D0D21EFA
:105450003FD02DE195F83A406C2C09D06869421C88
:105460006A610A680A6052F8043B0A60335429E111
:105470000A680A6052F8043B0A6000930022019215
:105480004FF0FF332B636A46294600F098F9002855
:1054900040F1188103E195F83A000122FFF76DFF12
:1054A000C5E90001002904D56869411C69612D2204
:1054B0000DE0288F810704D56869411C69612B22A2
:1054C00005E0C00721D56869411C6961202232547A
:1054D0001BE095F83A000022FFF74FFFC5E90001F5
:1054E00095F83800010710D5D5E90023002B08BF37
:1054F000002A0AD044F02000782806D168693021BB
:105500003154401C421C6A6134542146686930445D
:10551000E86087E00868C01D20F007000860D0E957
:10552000002308300860C5E90023D5E90001C80F51
:1055300004D06869411C69612D220DE0288F810724
:1055400004D56869411C69612B2205E0C00704D5B8
:105550006869411C69612022325468693044E860FE
:105560002146284600F036FAACE005F13A025078C0
:1055700020B14FF0FF340FF6043074E01078622849
:1055800008D0682824D06A2812D06C282ED0712820
:105590000ED02BE00A680A6052F8040B0A6020B9AA
:1055A0004FF0FF340FF6EC205DE0E96A017089E00E
:1055B0000A680A6052F8040B0A6020B94FF0FF3401
:1055C0000FF6D0204FE0EA6AD317C0E9002379E054
:1055D0000A680A6052F8040B0A6020B94FF0FF34E1
:1055E0000FF6B0203FE0E96A01806BE00A680A60CC
:1055F00052F8040B0A6020B94FF0FF340FF69420E4
:1056000031E0E96A01605DE00A680A6052F8040B63
:105610000A60002120F0000221F0FF33C5E90023D9
:10562000EE607821284600F02DF94BE06C2285F8D9
:105630003A200B680B6053F8042B0B6052BB4FF001
:10564000FF340FF684200EE095F83A206C2AF0D053
:105650000868086050F8044B0860EC603CB94FF0F3
:10566000FF340FF6482002F039FD201A76BD2E6B6C
:10567000002E04D5204602F051FD044608E03246D3
:105680000021204602F054FD002814BF041B3446BC
:10569000AC6117E0294600F092F8002812D54FF0CF
:1056A000FF3076BD6869411C69612522325409E0EA
:1056B0006969481C686125227254210002D0431C8C
:1056C0006B613454002076BD2DE9F0410E4605464D
:1056D0009046726B7069316AB46A121AB069521AD4
:1056E000716A121AF069521A121A96F83800141BCD
:1056F00041070DD4002C0BDD2746B0682021A847B8
:105700000028B06057D0F06A401C7F1EF062F4D1D0
:10571000736942463146284600F098FC00284AD179
:10572000376A002F0ADDB0683021A8470028B06032
:1057300041D0F06A401C7F1EF062F4D1B369F26878
:105740003146284600F082FCA8BB776A002F09DDAD
:10575000B0683021A847B06068B3F06A401C7F1E73
:10576000F062F5D1F068B169F36942183146284614
:1057700000F06CFCF8B9B76A002F09DDB068302181
:10578000A847B060B8B1F06A401C7F1EF062F5D146
:1057900096F8380041070BD5002C09DDB0682021B0
:1057A000A847B06038B1F06A401C641EF062F5D1C1
:1057B0000020BDE8F0814FF0FF30BDE8F0812DE919
:1057C000F8470D46A3B02F6B002F0646904648BF02
:1057D0006FF000470FF60C1402F0D6FCD4E900235A
:1057E000696B4018CDE90123812828BF4FF0FF30B5
:1057F00042D20024002F33DDD8F8001001AA6846F9
:1058000002F058FC8146B9F1000F38D4D8F80000F6
:1058100010B9B9F1010932D44F4521DB6869484418
:1058200081280AD30021696303AA29463046FFF77D
:105830004BFF040014D40020686103ABD5F814A01A
:105840004A46694603EB0A00FFF79CF8CA44C5F8CC
:1058500014A058F8040B002818BFA7EB0907C9D1FA
:105860004CB903AA29463046FFF72EFF044614B967
:10587000002068616863204624B0BDE8F0874FF0DF
:10588000FF34F8E72DE9FC4307466F293E6908BF5E
:10589000082405D041F02000782814BF0A241024E1
:1058A0003C25D7E90023642918BF69299046994609
:1058B00005D1002B03D5D8F1000869EB4909B9F1EE
:1058C000000F08BFB8F1000F1FD1386BE8B9082CE2
:1058D0004CD197F83800010748D530203B2586F891
:1058E0003B0043E000280ED597F8380000F0140084
:1058F000102808D17B6B7969386A5B1A1B1A9A1ACF
:10590000002AC8BF3A62BDE8F3838DF80010404614
:1059100049462246E31702F03DFC3032D0B26D1EFC
:105920003A28019504DB9DF80000A0F151018A1886
:105930007255404649462246E31702F02BFC80464A
:105940005FEA010908BFB8F1000F03D0F8687119C8
:105950008842DCD3082C09D197F83800010705D517
:10596000705D302802D06D1E30207055C5F13C02AC
:10597000BA617119F960386B8242B3DA821A3A62FD
:105980004FF6EF70398F01403987BDE8F3832DE979
:10599000D04306460F4614464FF00008DFF8109437
:1059A00012E0E00707D542464B463046394602F042
:1059B00074FC06460F464046494642464B4602F0B6
:1059C0006CFC641080468946002CEAD1304639468A
:1059D000BDE8D0832DE9F84F05468A464AF02004F9
:1059E0008EB0D5E90089612C02AE09D0286B002861
:1059F00048BF062003D408BF672C01D101202863CB
:105A0000D5E900014A005215521C0DD10B030BD0F1
:105A1000AAF1610103201A29A86102D20FF2CC6118
:105A200010E00FF2CC610DE04A005215521C0ED16D
:105A30000B030CD1AAF1610103201A29A86116D326
:105A40000FF2B461E8680322FEF79CFFC0E1CDE9E4
:105A50000C01DDE90C2323F00043B3F5801F0DD2C8
:105A60000027002B08BF002A019703D111E00FF295
:105A70008461E7E701AA02F019FC0AE0CD48CE49AB
:105A800000EB1350DDE90C2301900B40CB4910468D
:105A90001943C5E90001612C0DD1E868302101707E
:105AA000821CBAF1610FEA600CBF78215821417065
:105AB0006869801C6861D5E90001CDE90C01DDE968
:105AC0000C2333F0004104BF0028002300F048817C
:105AD000612C40F0A080286B494600284CBF4FF055
